{
	"contracts/Copyright.sol": {
		"Copyright": {
			"abi": [
				{
					"anonymous": false,
					"inputs": [
						{
							"indexed": true,
							"internalType": "string",
							"name": "hash",
							"type": "string"
						},
						{
							"indexed": true,
							"internalType": "address",
							"name": "owner",
							"type": "address"
						},
						{
							"indexed": false,
							"internalType": "uint256",
							"name": "timestamp",
							"type": "uint256"
						}
					],
					"name": "DocumentRegistered",
					"type": "event"
				},
				{
					"inputs": [
						{
							"internalType": "string",
							"name": "_hash",
							"type": "string"
						}
					],
					"name": "getDocumentInfo",
					"outputs": [
						{
							"internalType": "address",
							"name": "owner",
							"type": "address"
						},
						{
							"internalType": "uint256",
							"name": "timestamp",
							"type": "uint256"
						}
					],
					"stateMutability": "view",
					"type": "function"
				},
				{
					"inputs": [
						{
							"internalType": "string",
							"name": "_hash",
							"type": "string"
						}
					],
					"name": "registerDocument",
					"outputs": [],
					"stateMutability": "nonpayable",
					"type": "function"
				}
			],
			"devdoc": {
				"kind": "dev",
				"methods": {
					"getDocumentInfo(string)": {
						"details": "Verifies the registration details of a document hash.",
						"params": {
							"_hash": "The SHA-256 hash of the document to verify."
						},
						"returns": {
							"owner": "The address of the owner who registered the document.",
							"timestamp": "The timestamp of registration."
						}
					},
					"registerDocument(string)": {
						"details": "Registers a new document hash. The hash must not have been previously registered.",
						"params": {
							"_hash": "The SHA-256 hash of the document."
						}
					}
				},
				"version": 1
			},
			"evm": {
				"assembly": "    /* \"contracts/Copyright.sol\":57:1684  contract Copyright {... */\n  mstore(0x40, 0x80)\n  callvalue\n  dup1\n  iszero\n  tag_1\n  jumpi\n  0x00\n  dup1\n  revert\ntag_1:\n  pop\n  dataSize(sub_0)\n  dup1\n  dataOffset(sub_0)\n  0x00\n  codecopy\n  0x00\n  return\nstop\n\nsub_0: assembly {\n        /* \"contracts/Copyright.sol\":57:1684  contract Copyright {... */\n      mstore(0x40, 0x80)\n      callvalue\n      dup1\n      iszero\n      tag_1\n      jumpi\n      0x00\n      dup1\n      revert\n    tag_1:\n      pop\n      jumpi(tag_2, lt(calldatasize, 0x04))\n      shr(0xe0, calldataload(0x00))\n      dup1\n      0x37ce06bd\n      eq\n      tag_3\n      jumpi\n      dup1\n      0x4847a470\n      eq\n      tag_4\n      jumpi\n    tag_2:\n      0x00\n      dup1\n      revert\n        /* \"contracts/Copyright.sol\":1349:1682  function getDocumentInfo(string memory _hash) public view returns (address owner, uint256 timestamp) {... */\n    tag_3:\n      tag_5\n      0x04\n      dup1\n      calldatasize\n      sub\n      dup2\n      add\n      swap1\n      tag_6\n      swap2\n      swap1\n      tag_7\n      jump\t// in\n    tag_6:\n      tag_8\n      jump\t// in\n    tag_5:\n      mload(0x40)\n      tag_9\n      swap3\n      swap2\n      swap1\n      tag_10\n      jump\t// in\n    tag_9:\n      mload(0x40)\n      dup1\n      swap2\n      sub\n      swap1\n      return\n        /* \"contracts/Copyright.sol\":658:1066  function registerDocument(string memory _hash) public {... */\n    tag_4:\n      tag_11\n      0x04\n      dup1\n      calldatasize\n      sub\n      dup2\n      add\n      swap1\n      tag_12\n      swap2\n      swap1\n      tag_7\n      jump\t// in\n    tag_12:\n      tag_13\n      jump\t// in\n    tag_11:\n      stop\n        /* \"contracts/Copyright.sol\":1349:1682  function getDocumentInfo(string memory _hash) public view returns (address owner, uint256 timestamp) {... */\n    tag_8:\n        /* \"contracts/Copyright.sol\":1416:1429  address owner */\n      0x00\n        /* \"contracts/Copyright.sol\":1431:1448  uint256 timestamp */\n      dup1\n        /* \"contracts/Copyright.sol\":1501:1502  0 */\n      0x00\n        /* \"contracts/Copyright.sol\":1468:1503  documentHashes[_hash] != address(0) */\n      0xffffffffffffffffffffffffffffffffffffffff\n      and\n        /* \"contracts/Copyright.sol\":1468:1482  documentHashes */\n      0x00\n        /* \"contracts/Copyright.sol\":1483:1488  _hash */\n      dup5\n        /* \"contracts/Copyright.sol\":1468:1489  documentHashes[_hash] */\n      mload(0x40)\n      tag_15\n      swap2\n      swap1\n      tag_16\n      jump\t// in\n    tag_15:\n      swap1\n      dup2\n      mstore\n      0x20\n      add\n      mload(0x40)\n      dup1\n      swap2\n      sub\n      swap1\n      keccak256\n      0x00\n      swap1\n      sload\n      swap1\n      0x0100\n      exp\n      swap1\n      div\n      0xffffffffffffffffffffffffffffffffffffffff\n      and\n        /* \"contracts/Copyright.sol\":1468:1503  documentHashes[_hash] != address(0) */\n      0xffffffffffffffffffffffffffffffffffffffff\n      and\n      eq\n      iszero\n        /* \"contracts/Copyright.sol\":1460:1532  require(documentHashes[_hash] != address(0), \"Document hash not found.\") */\n      tag_17\n      jumpi\n      mload(0x40)\n      0x08c379a000000000000000000000000000000000000000000000000000000000\n      dup2\n      mstore\n      0x04\n      add\n      tag_18\n      swap1\n      tag_19\n      jump\t// in\n    tag_18:\n      mload(0x40)\n      dup1\n      swap2\n      sub\n      swap1\n      revert\n    tag_17:\n        /* \"contracts/Copyright.sol\":1559:1573  documentHashes */\n      0x00\n        /* \"contracts/Copyright.sol\":1574:1579  _hash */\n      dup4\n        /* \"contracts/Copyright.sol\":1559:1580  documentHashes[_hash] */\n      mload(0x40)\n      tag_20\n      swap2\n      swap1\n      tag_16\n      jump\t// in\n    tag_20:\n      swap1\n      dup2\n      mstore\n      0x20\n      add\n      mload(0x40)\n      dup1\n      swap2\n      sub\n      swap1\n      keccak256\n      0x00\n      swap1\n      sload\n      swap1\n      0x0100\n      exp\n      swap1\n      div\n      0xffffffffffffffffffffffffffffffffffffffff\n      and\n        /* \"contracts/Copyright.sol\":1551:1580  owner = documentHashes[_hash] */\n      swap2\n      pop\n        /* \"contracts/Copyright.sol\":1602:1624  registrationTimestamps */\n      0x01\n        /* \"contracts/Copyright.sol\":1625:1630  _hash */\n      dup4\n        /* \"contracts/Copyright.sol\":1602:1631  registrationTimestamps[_hash] */\n      mload(0x40)\n      tag_21\n      swap2\n      swap1\n      tag_16\n      jump\t// in\n    tag_21:\n      swap1\n      dup2\n      mstore\n      0x20\n      add\n      mload(0x40)\n      dup1\n      swap2\n      sub\n      swap1\n      keccak256\n      sload\n        /* \"contracts/Copyright.sol\":1590:1631  timestamp = registrationTimestamps[_hash] */\n      swap1\n      pop\n        /* \"contracts/Copyright.sol\":1349:1682  function getDocumentInfo(string memory _hash) public view returns (address owner, uint256 timestamp) {... */\n      swap2\n      pop\n      swap2\n      jump\t// out\n        /* \"contracts/Copyright.sol\":658:1066  function registerDocument(string memory _hash) public {... */\n    tag_13:\n        /* \"contracts/Copyright.sol\":763:764  0 */\n      0x00\n        /* \"contracts/Copyright.sol\":730:765  documentHashes[_hash] == address(0) */\n      0xffffffffffffffffffffffffffffffffffffffff\n      and\n        /* \"contracts/Copyright.sol\":730:744  documentHashes */\n      0x00\n        /* \"contracts/Copyright.sol\":745:750  _hash */\n      dup3\n        /* \"contracts/Copyright.sol\":730:751  documentHashes[_hash] */\n      mload(0x40)\n      tag_23\n      swap2\n      swap1\n      tag_16\n      jump\t// in\n    tag_23:\n      swap1\n      dup2\n      mstore\n      0x20\n      add\n      mload(0x40)\n      dup1\n      swap2\n      sub\n      swap1\n      keccak256\n      0x00\n      swap1\n      sload\n      swap1\n      0x0100\n      exp\n      swap1\n      div\n      0xffffffffffffffffffffffffffffffffffffffff\n      and\n        /* \"contracts/Copyright.sol\":730:765  documentHashes[_hash] == address(0) */\n      0xffffffffffffffffffffffffffffffffffffffff\n      and\n      eq\n        /* \"contracts/Copyright.sol\":722:803  require(documentHashes[_hash] == address(0), \"Document hash already registered.\") */\n      tag_24\n      jumpi\n      mload(0x40)\n      0x08c379a000000000000000000000000000000000000000000000000000000000\n      dup2\n      mstore\n      0x04\n      add\n      tag_25\n      swap1\n      tag_26\n      jump\t// in\n    tag_25:\n      mload(0x40)\n      dup1\n      swap2\n      sub\n      swap1\n      revert\n    tag_24:\n        /* \"contracts/Copyright.sol\":822:835  address owner */\n      0x00\n        /* \"contracts/Copyright.sol\":838:848  msg.sender */\n      caller\n        /* \"contracts/Copyright.sol\":822:848  address owner = msg.sender */\n      swap1\n      pop\n        /* \"contracts/Copyright.sol\":858:875  uint256 timestamp */\n      0x00\n        /* \"contracts/Copyright.sol\":878:893  block.timestamp */\n      timestamp\n        /* \"contracts/Copyright.sol\":858:893  uint256 timestamp = block.timestamp */\n      swap1\n      pop\n        /* \"contracts/Copyright.sol\":936:941  owner */\n      dup2\n        /* \"contracts/Copyright.sol\":912:926  documentHashes */\n      0x00\n        /* \"contracts/Copyright.sol\":927:932  _hash */\n      dup5\n        /* \"contracts/Copyright.sol\":912:933  documentHashes[_hash] */\n      mload(0x40)\n      tag_27\n      swap2\n      swap1\n      tag_16\n      jump\t// in\n    tag_27:\n      swap1\n      dup2\n      mstore\n      0x20\n      add\n      mload(0x40)\n      dup1\n      swap2\n      sub\n      swap1\n      keccak256\n      0x00\n        /* \"contracts/Copyright.sol\":912:941  documentHashes[_hash] = owner */\n      0x0100\n      exp\n      dup2\n      sload\n      dup2\n      0xffffffffffffffffffffffffffffffffffffffff\n      mul\n      not\n      and\n      swap1\n      dup4\n      0xffffffffffffffffffffffffffffffffffffffff\n      and\n      mul\n      or\n      swap1\n      sstore\n      pop\n        /* \"contracts/Copyright.sol\":983:992  timestamp */\n      dup1\n        /* \"contracts/Copyright.sol\":951:973  registrationTimestamps */\n      0x01\n        /* \"contracts/Copyright.sol\":974:979  _hash */\n      dup5\n        /* \"contracts/Copyright.sol\":951:980  registrationTimestamps[_hash] */\n      mload(0x40)\n      tag_28\n      swap2\n      swap1\n      tag_16\n      jump\t// in\n    tag_28:\n      swap1\n      dup2\n      mstore\n      0x20\n      add\n      mload(0x40)\n      dup1\n      swap2\n      sub\n      swap1\n      keccak256\n        /* \"contracts/Copyright.sol\":951:992  registrationTimestamps[_hash] = timestamp */\n      dup2\n      swap1\n      sstore\n      pop\n        /* \"contracts/Copyright.sol\":1042:1047  owner */\n      dup2\n        /* \"contracts/Copyright.sol\":1016:1059  DocumentRegistered(_hash, owner, timestamp) */\n      0xffffffffffffffffffffffffffffffffffffffff\n      and\n        /* \"contracts/Copyright.sol\":1035:1040  _hash */\n      dup4\n        /* \"contracts/Copyright.sol\":1016:1059  DocumentRegistered(_hash, owner, timestamp) */\n      mload(0x40)\n      tag_29\n      swap2\n      swap1\n      tag_16\n      jump\t// in\n    tag_29:\n      mload(0x40)\n      dup1\n      swap2\n      sub\n      swap1\n      keccak256\n      0xa480cfd3e8635016e70d79cba8736969cb3674ce0af6b5e1229168453689088c\n        /* \"contracts/Copyright.sol\":1049:1058  timestamp */\n      dup4\n        /* \"contracts/Copyright.sol\":1016:1059  DocumentRegistered(_hash, owner, timestamp) */\n      mload(0x40)\n      tag_30\n      swap2\n      swap1\n      tag_31\n      jump\t// in\n    tag_30:\n      mload(0x40)\n      dup1\n      swap2\n      sub\n      swap1\n      log3\n        /* \"contracts/Copyright.sol\":658:1066  function registerDocument(string memory _hash) public {... */\n      pop\n      pop\n      pop\n      jump\t// out\n        /* \"#utility.yul\":7:351   */\n    tag_33:\n      0x00\n        /* \"#utility.yul\":110:175   */\n      tag_35\n        /* \"#utility.yul\":125:174   */\n      tag_36\n        /* \"#utility.yul\":167:173   */\n      dup5\n        /* \"#utility.yul\":125:174   */\n      tag_37\n      jump\t// in\n    tag_36:\n        /* \"#utility.yul\":110:175   */\n      tag_38\n      jump\t// in\n    tag_35:\n        /* \"#utility.yul\":101:175   */\n      swap1\n      pop\n        /* \"#utility.yul\":198:204   */\n      dup3\n        /* \"#utility.yul\":191:196   */\n      dup2\n        /* \"#utility.yul\":184:205   */\n      mstore\n        /* \"#utility.yul\":236:240   */\n      0x20\n        /* \"#utility.yul\":229:234   */\n      dup2\n        /* \"#utility.yul\":225:241   */\n      add\n        /* \"#utility.yul\":274:277   */\n      dup5\n        /* \"#utility.yul\":265:271   */\n      dup5\n        /* \"#utility.yul\":260:263   */\n      dup5\n        /* \"#utility.yul\":256:272   */\n      add\n        /* \"#utility.yul\":253:278   */\n      gt\n        /* \"#utility.yul\":250:252   */\n      iszero\n      tag_39\n      jumpi\n        /* \"#utility.yul\":291:292   */\n      0x00\n        /* \"#utility.yul\":288:289   */\n      dup1\n        /* \"#utility.yul\":281:293   */\n      revert\n        /* \"#utility.yul\":250:252   */\n    tag_39:\n        /* \"#utility.yul\":304:345   */\n      tag_40\n        /* \"#utility.yul\":338:344   */\n      dup5\n        /* \"#utility.yul\":333:336   */\n      dup3\n        /* \"#utility.yul\":328:331   */\n      dup6\n        /* \"#utility.yul\":304:345   */\n      tag_41\n      jump\t// in\n    tag_40:\n        /* \"#utility.yul\":91:351   */\n      pop\n      swap4\n      swap3\n      pop\n      pop\n      pop\n      jump\t// out\n        /* \"#utility.yul\":371:644   */\n    tag_42:\n      0x00\n        /* \"#utility.yul\":476:479   */\n      dup3\n        /* \"#utility.yul\":469:473   */\n      0x1f\n        /* \"#utility.yul\":461:467   */\n      dup4\n        /* \"#utility.yul\":457:474   */\n      add\n        /* \"#utility.yul\":453:480   */\n      slt\n        /* \"#utility.yul\":443:445   */\n      tag_44\n      jumpi\n        /* \"#utility.yul\":494:495   */\n      0x00\n        /* \"#utility.yul\":491:492   */\n      dup1\n        /* \"#utility.yul\":484:496   */\n      revert\n        /* \"#utility.yul\":443:445   */\n    tag_44:\n        /* \"#utility.yul\":534:540   */\n      dup2\n        /* \"#utility.yul\":521:541   */\n      calldataload\n        /* \"#utility.yul\":559:638   */\n      tag_45\n        /* \"#utility.yul\":634:637   */\n      dup5\n        /* \"#utility.yul\":626:632   */\n      dup3\n        /* \"#utility.yul\":619:623   */\n      0x20\n        /* \"#utility.yul\":611:617   */\n      dup7\n        /* \"#utility.yul\":607:624   */\n      add\n        /* \"#utility.yul\":559:638   */\n      tag_33\n      jump\t// in\n    tag_45:\n        /* \"#utility.yul\":550:638   */\n      swap2\n      pop\n        /* \"#utility.yul\":433:644   */\n      pop\n      swap3\n      swap2\n      pop\n      pop\n      jump\t// out\n        /* \"#utility.yul\":650:1025   */\n    tag_7:\n      0x00\n        /* \"#utility.yul\":768:770   */\n      0x20\n        /* \"#utility.yul\":756:765   */\n      dup3\n        /* \"#utility.yul\":747:754   */\n      dup5\n        /* \"#utility.yul\":743:766   */\n      sub\n        /* \"#utility.yul\":739:771   */\n      slt\n        /* \"#utility.yul\":736:738   */\n      iszero\n      tag_47\n      jumpi\n        /* \"#utility.yul\":784:785   */\n      0x00\n        /* \"#utility.yul\":781:782   */\n      dup1\n        /* \"#utility.yul\":774:786   */\n      revert\n        /* \"#utility.yul\":736:738   */\n    tag_47:\n        /* \"#utility.yul\":855:856   */\n      0x00\n        /* \"#utility.yul\":844:853   */\n      dup3\n        /* \"#utility.yul\":840:857   */\n      add\n        /* \"#utility.yul\":827:858   */\n      calldataload\n        /* \"#utility.yul\":885:903   */\n      0xffffffffffffffff\n        /* \"#utility.yul\":877:883   */\n      dup2\n        /* \"#utility.yul\":874:904   */\n      gt\n        /* \"#utility.yul\":871:873   */\n      iszero\n      tag_48\n      jumpi\n        /* \"#utility.yul\":917:918   */\n      0x00\n        /* \"#utility.yul\":914:915   */\n      dup1\n        /* \"#utility.yul\":907:919   */\n      revert\n        /* \"#utility.yul\":871:873   */\n    tag_48:\n        /* \"#utility.yul\":945:1008   */\n      tag_49\n        /* \"#utility.yul\":1000:1007   */\n      dup5\n        /* \"#utility.yul\":991:997   */\n      dup3\n        /* \"#utility.yul\":980:989   */\n      dup6\n        /* \"#utility.yul\":976:998   */\n      add\n        /* \"#utility.yul\":945:1008   */\n      tag_42\n      jump\t// in\n    tag_49:\n        /* \"#utility.yul\":935:1008   */\n      swap2\n      pop\n        /* \"#utility.yul\":798:1018   */\n      pop\n        /* \"#utility.yul\":726:1025   */\n      swap3\n      swap2\n      pop\n      pop\n      jump\t// out\n        /* \"#utility.yul\":1031:1149   */\n    tag_50:\n        /* \"#utility.yul\":1118:1142   */\n      tag_52\n        /* \"#utility.yul\":1136:1141   */\n      dup2\n        /* \"#utility.yul\":1118:1142   */\n      tag_53\n      jump\t// in\n    tag_52:\n        /* \"#utility.yul\":1113:1116   */\n      dup3\n        /* \"#utility.yul\":1106:1143   */\n      mstore\n        /* \"#utility.yul\":1096:1149   */\n      pop\n      pop\n      jump\t// out\n        /* \"#utility.yul\":1155:1532   */\n    tag_54:\n      0x00\n        /* \"#utility.yul\":1289:1328   */\n      tag_56\n        /* \"#utility.yul\":1322:1327   */\n      dup3\n        /* \"#utility.yul\":1289:1328   */\n      tag_57\n      jump\t// in\n    tag_56:\n        /* \"#utility.yul\":1344:1433   */\n      tag_58\n        /* \"#utility.yul\":1426:1432   */\n      dup2\n        /* \"#utility.yul\":1421:1424   */\n      dup6\n        /* \"#utility.yul\":1344:1433   */\n      tag_59\n      jump\t// in\n    tag_58:\n        /* \"#utility.yul\":1337:1433   */\n      swap4\n      pop\n        /* \"#utility.yul\":1442:1494   */\n      tag_60\n        /* \"#utility.yul\":1487:1493   */\n      dup2\n        /* \"#utility.yul\":1482:1485   */\n      dup6\n        /* \"#utility.yul\":1475:1479   */\n      0x20\n        /* \"#utility.yul\":1468:1473   */\n      dup7\n        /* \"#utility.yul\":1464:1480   */\n      add\n        /* \"#utility.yul\":1442:1494   */\n      tag_61\n      jump\t// in\n    tag_60:\n        /* \"#utility.yul\":1519:1525   */\n      dup1\n        /* \"#utility.yul\":1514:1517   */\n      dup5\n        /* \"#utility.yul\":1510:1526   */\n      add\n        /* \"#utility.yul\":1503:1526   */\n      swap2\n      pop\n        /* \"#utility.yul\":1265:1532   */\n      pop\n      swap3\n      swap2\n      pop\n      pop\n      jump\t// out\n        /* \"#utility.yul\":1538:1860   */\n    tag_62:\n      0x00\n        /* \"#utility.yul\":1701:1768   */\n      tag_64\n        /* \"#utility.yul\":1765:1767   */\n      0x18\n        /* \"#utility.yul\":1760:1763   */\n      dup4\n        /* \"#utility.yul\":1701:1768   */\n      tag_65\n      jump\t// in\n    tag_64:\n        /* \"#utility.yul\":1694:1768   */\n      swap2\n      pop\n        /* \"#utility.yul\":1798:1824   */\n      0x446f63756d656e742068617368206e6f7420666f756e642e0000000000000000\n        /* \"#utility.yul\":1794:1795   */\n      0x00\n        /* \"#utility.yul\":1789:1792   */\n      dup4\n        /* \"#utility.yul\":1785:1796   */\n      add\n        /* \"#utility.yul\":1778:1825   */\n      mstore\n        /* \"#utility.yul\":1851:1853   */\n      0x20\n        /* \"#utility.yul\":1846:1849   */\n      dup3\n        /* \"#utility.yul\":1842:1854   */\n      add\n        /* \"#utility.yul\":1835:1854   */\n      swap1\n      pop\n        /* \"#utility.yul\":1684:1860   */\n      swap2\n      swap1\n      pop\n      jump\t// out\n        /* \"#utility.yul\":1866:2231   */\n    tag_66:\n      0x00\n        /* \"#utility.yul\":2029:2096   */\n      tag_68\n        /* \"#utility.yul\":2093:2095   */\n      0x21\n        /* \"#utility.yul\":2088:2091   */\n      dup4\n        /* \"#utility.yul\":2029:2096   */\n      tag_65\n      jump\t// in\n    tag_68:\n        /* \"#utility.yul\":2022:2096   */\n      swap2\n      pop\n        /* \"#utility.yul\":2126:2160   */\n      0x446f63756d656e74206861736820616c72656164792072656769737465726564\n        /* \"#utility.yul\":2122:2123   */\n      0x00\n        /* \"#utility.yul\":2117:2120   */\n      dup4\n        /* \"#utility.yul\":2113:2124   */\n      add\n        /* \"#utility.yul\":2106:2161   */\n      mstore\n        /* \"#utility.yul\":2192:2195   */\n      0x2e00000000000000000000000000000000000000000000000000000000000000\n        /* \"#utility.yul\":2187:2189   */\n      0x20\n        /* \"#utility.yul\":2182:2185   */\n      dup4\n        /* \"#utility.yul\":2178:2190   */\n      add\n        /* \"#utility.yul\":2171:2196   */\n      mstore\n        /* \"#utility.yul\":2222:2224   */\n      0x40\n        /* \"#utility.yul\":2217:2220   */\n      dup3\n        /* \"#utility.yul\":2213:2225   */\n      add\n        /* \"#utility.yul\":2206:2225   */\n      swap1\n      pop\n        /* \"#utility.yul\":2012:2231   */\n      swap2\n      swap1\n      pop\n      jump\t// out\n        /* \"#utility.yul\":2237:2355   */\n    tag_69:\n        /* \"#utility.yul\":2324:2348   */\n      tag_71\n        /* \"#utility.yul\":2342:2347   */\n      dup2\n        /* \"#utility.yul\":2324:2348   */\n      tag_72\n      jump\t// in\n    tag_71:\n        /* \"#utility.yul\":2319:2322   */\n      dup3\n        /* \"#utility.yul\":2312:2349   */\n      mstore\n        /* \"#utility.yul\":2302:2355   */\n      pop\n      pop\n      jump\t// out\n        /* \"#utility.yul\":2361:2636   */\n    tag_16:\n      0x00\n        /* \"#utility.yul\":2515:2610   */\n      tag_74\n        /* \"#utility.yul\":2606:2609   */\n      dup3\n        /* \"#utility.yul\":2597:2603   */\n      dup5\n        /* \"#utility.yul\":2515:2610   */\n      tag_54\n      jump\t// in\n    tag_74:\n        /* \"#utility.yul\":2508:2610   */\n      swap2\n      pop\n        /* \"#utility.yul\":2627:2630   */\n      dup2\n        /* \"#utility.yul\":2620:2630   */\n      swap1\n      pop\n        /* \"#utility.yul\":2497:2636   */\n      swap3\n      swap2\n      pop\n      pop\n      jump\t// out\n        /* \"#utility.yul\":2642:2974   */\n    tag_10:\n      0x00\n        /* \"#utility.yul\":2801:2803   */\n      0x40\n        /* \"#utility.yul\":2790:2799   */\n      dup3\n        /* \"#utility.yul\":2786:2804   */\n      add\n        /* \"#utility.yul\":2778:2804   */\n      swap1\n      pop\n        /* \"#utility.yul\":2814:2885   */\n      tag_76\n        /* \"#utility.yul\":2882:2883   */\n      0x00\n        /* \"#utility.yul\":2871:2880   */\n      dup4\n        /* \"#utility.yul\":2867:2884   */\n      add\n        /* \"#utility.yul\":2858:2864   */\n      dup6\n        /* \"#utility.yul\":2814:2885   */\n      tag_50\n      jump\t// in\n    tag_76:\n        /* \"#utility.yul\":2895:2967   */\n      tag_77\n        /* \"#utility.yul\":2963:2965   */\n      0x20\n        /* \"#utility.yul\":2952:2961   */\n      dup4\n        /* \"#utility.yul\":2948:2966   */\n      add\n        /* \"#utility.yul\":2939:2945   */\n      dup5\n        /* \"#utility.yul\":2895:2967   */\n      tag_69\n      jump\t// in\n    tag_77:\n        /* \"#utility.yul\":2768:2974   */\n      swap4\n      swap3\n      pop\n      pop\n      pop\n      jump\t// out\n        /* \"#utility.yul\":2980:3399   */\n    tag_19:\n      0x00\n        /* \"#utility.yul\":3184:3186   */\n      0x20\n        /* \"#utility.yul\":3173:3182   */\n      dup3\n        /* \"#utility.yul\":3169:3187   */\n      add\n        /* \"#utility.yul\":3161:3187   */\n      swap1\n      pop\n        /* \"#utility.yul\":3233:3242   */\n      dup2\n        /* \"#utility.yul\":3227:3231   */\n      dup2\n        /* \"#utility.yul\":3223:3243   */\n      sub\n        /* \"#utility.yul\":3219:3220   */\n      0x00\n        /* \"#utility.yul\":3208:3217   */\n      dup4\n        /* \"#utility.yul\":3204:3221   */\n      add\n        /* \"#utility.yul\":3197:3244   */\n      mstore\n        /* \"#utility.yul\":3261:3392   */\n      tag_79\n        /* \"#utility.yul\":3387:3391   */\n      dup2\n        /* \"#utility.yul\":3261:3392   */\n      tag_62\n      jump\t// in\n    tag_79:\n        /* \"#utility.yul\":3253:3392   */\n      swap1\n      pop\n        /* \"#utility.yul\":3151:3399   */\n      swap2\n      swap1\n      pop\n      jump\t// out\n        /* \"#utility.yul\":3405:3824   */\n    tag_26:\n      0x00\n        /* \"#utility.yul\":3609:3611   */\n      0x20\n        /* \"#utility.yul\":3598:3607   */\n      dup3\n        /* \"#utility.yul\":3594:3612   */\n      add\n        /* \"#utility.yul\":3586:3612   */\n      swap1\n      pop\n        /* \"#utility.yul\":3658:3667   */\n      dup2\n        /* \"#utility.yul\":3652:3656   */\n      dup2\n        /* \"#utility.yul\":3648:3668   */\n      sub\n        /* \"#utility.yul\":3644:3645   */\n      0x00\n        /* \"#utility.yul\":3633:3642   */\n      dup4\n        /* \"#utility.yul\":3629:3646   */\n      add\n        /* \"#utility.yul\":3622:3669   */\n      mstore\n        /* \"#utility.yul\":3686:3817   */\n      tag_81\n        /* \"#utility.yul\":3812:3816   */\n      dup2\n        /* \"#utility.yul\":3686:3817   */\n      tag_66\n      jump\t// in\n    tag_81:\n        /* \"#utility.yul\":3678:3817   */\n      swap1\n      pop\n        /* \"#utility.yul\":3576:3824   */\n      swap2\n      swap1\n      pop\n      jump\t// out\n        /* \"#utility.yul\":3830:4052   */\n    tag_31:\n      0x00\n        /* \"#utility.yul\":3961:3963   */\n      0x20\n        /* \"#utility.yul\":3950:3959   */\n      dup3\n        /* \"#utility.yul\":3946:3964   */\n      add\n        /* \"#utility.yul\":3938:3964   */\n      swap1\n      pop\n        /* \"#utility.yul\":3974:4045   */\n      tag_83\n        /* \"#utility.yul\":4042:4043   */\n      0x00\n        /* \"#utility.yul\":4031:4040   */\n      dup4\n        /* \"#utility.yul\":4027:4044   */\n      add\n        /* \"#utility.yul\":4018:4024   */\n      dup5\n        /* \"#utility.yul\":3974:4045   */\n      tag_69\n      jump\t// in\n    tag_83:\n        /* \"#utility.yul\":3928:4052   */\n      swap3\n      swap2\n      pop\n      pop\n      jump\t// out\n        /* \"#utility.yul\":4058:4341   */\n    tag_38:\n      0x00\n        /* \"#utility.yul\":4124:4126   */\n      0x40\n        /* \"#utility.yul\":4118:4127   */\n      mload\n        /* \"#utility.yul\":4108:4127   */\n      swap1\n      pop\n        /* \"#utility.yul\":4166:4170   */\n      dup2\n        /* \"#utility.yul\":4158:4164   */\n      dup2\n        /* \"#utility.yul\":4154:4171   */\n      add\n        /* \"#utility.yul\":4273:4279   */\n      dup2\n        /* \"#utility.yul\":4261:4271   */\n      dup2\n        /* \"#utility.yul\":4258:4280   */\n      lt\n        /* \"#utility.yul\":4237:4255   */\n      0xffffffffffffffff\n        /* \"#utility.yul\":4225:4235   */\n      dup3\n        /* \"#utility.yul\":4222:4256   */\n      gt\n        /* \"#utility.yul\":4219:4281   */\n      or\n        /* \"#utility.yul\":4216:4218   */\n      iszero\n      tag_85\n      jumpi\n        /* \"#utility.yul\":4284:4302   */\n      tag_86\n      tag_87\n      jump\t// in\n    tag_86:\n        /* \"#utility.yul\":4216:4218   */\n    tag_85:\n        /* \"#utility.yul\":4324:4334   */\n      dup1\n        /* \"#utility.yul\":4320:4322   */\n      0x40\n        /* \"#utility.yul\":4313:4335   */\n      mstore\n        /* \"#utility.yul\":4098:4341   */\n      pop\n      swap2\n      swap1\n      pop\n      jump\t// out\n        /* \"#utility.yul\":4347:4679   */\n    tag_37:\n      0x00\n        /* \"#utility.yul\":4499:4517   */\n      0xffffffffffffffff\n        /* \"#utility.yul\":4491:4497   */\n      dup3\n        /* \"#utility.yul\":4488:4518   */\n      gt\n        /* \"#utility.yul\":4485:4487   */\n      iszero\n      tag_89\n      jumpi\n        /* \"#utility.yul\":4521:4539   */\n      tag_90\n      tag_87\n      jump\t// in\n    tag_90:\n        /* \"#utility.yul\":4485:4487   */\n    tag_89:\n        /* \"#utility.yul\":4606:4610   */\n      0x1f\n        /* \"#utility.yul\":4602:4611   */\n      not\n        /* \"#utility.yul\":4595:4599   */\n      0x1f\n        /* \"#utility.yul\":4587:4593   */\n      dup4\n        /* \"#utility.yul\":4583:4600   */\n      add\n        /* \"#utility.yul\":4579:4612   */\n      and\n        /* \"#utility.yul\":4571:4612   */\n      swap1\n      pop\n        /* \"#utility.yul\":4667:4671   */\n      0x20\n        /* \"#utility.yul\":4661:4665   */\n      dup2\n        /* \"#utility.yul\":4657:4672   */\n      add\n        /* \"#utility.yul\":4649:4672   */\n      swap1\n      pop\n        /* \"#utility.yul\":4414:4679   */\n      swap2\n      swap1\n      pop\n      jump\t// out\n        /* \"#utility.yul\":4685:4784   */\n    tag_57:\n      0x00\n        /* \"#utility.yul\":4771:4776   */\n      dup2\n        /* \"#utility.yul\":4765:4777   */\n      mload\n        /* \"#utility.yul\":4755:4777   */\n      swap1\n      pop\n        /* \"#utility.yul\":4744:4784   */\n      swap2\n      swap1\n      pop\n      jump\t// out\n        /* \"#utility.yul\":4790:4959   */\n    tag_65:\n      0x00\n        /* \"#utility.yul\":4908:4914   */\n      dup3\n        /* \"#utility.yul\":4903:4906   */\n      dup3\n        /* \"#utility.yul\":4896:4915   */\n      mstore\n        /* \"#utility.yul\":4948:4952   */\n      0x20\n        /* \"#utility.yul\":4943:4946   */\n      dup3\n        /* \"#utility.yul\":4939:4953   */\n      add\n        /* \"#utility.yul\":4924:4953   */\n      swap1\n      pop\n        /* \"#utility.yul\":4886:4959   */\n      swap3\n      swap2\n      pop\n      pop\n      jump\t// out\n        /* \"#utility.yul\":4965:5113   */\n    tag_59:\n      0x00\n        /* \"#utility.yul\":5104:5107   */\n      dup2\n        /* \"#utility.yul\":5089:5107   */\n      swap1\n      pop\n        /* \"#utility.yul\":5079:5113   */\n      swap3\n      swap2\n      pop\n      pop\n      jump\t// out\n        /* \"#utility.yul\":5119:5215   */\n    tag_53:\n      0x00\n        /* \"#utility.yul\":5185:5209   */\n      tag_95\n        /* \"#utility.yul\":5203:5208   */\n      dup3\n        /* \"#utility.yul\":5185:5209   */\n      tag_96\n      jump\t// in\n    tag_95:\n        /* \"#utility.yul\":5174:5209   */\n      swap1\n      pop\n        /* \"#utility.yul\":5164:5215   */\n      swap2\n      swap1\n      pop\n      jump\t// out\n        /* \"#utility.yul\":5221:5347   */\n    tag_96:\n      0x00\n        /* \"#utility.yul\":5298:5340   */\n      0xffffffffffffffffffffffffffffffffffffffff\n        /* \"#utility.yul\":5291:5296   */\n      dup3\n        /* \"#utility.yul\":5287:5341   */\n      and\n        /* \"#utility.yul\":5276:5341   */\n      swap1\n      pop\n        /* \"#utility.yul\":5266:5347   */\n      swap2\n      swap1\n      pop\n      jump\t// out\n        /* \"#utility.yul\":5353:5430   */\n    tag_72:\n      0x00\n        /* \"#utility.yul\":5419:5424   */\n      dup2\n        /* \"#utility.yul\":5408:5424   */\n      swap1\n      pop\n        /* \"#utility.yul\":5398:5430   */\n      swap2\n      swap1\n      pop\n      jump\t// out\n        /* \"#utility.yul\":5436:5590   */\n    tag_41:\n        /* \"#utility.yul\":5520:5526   */\n      dup3\n        /* \"#utility.yul\":5515:5518   */\n      dup2\n        /* \"#utility.yul\":5510:5513   */\n      dup4\n        /* \"#utility.yul\":5497:5527   */\n      calldatacopy\n        /* \"#utility.yul\":5582:5583   */\n      0x00\n        /* \"#utility.yul\":5573:5579   */\n      dup4\n        /* \"#utility.yul\":5568:5571   */\n      dup4\n        /* \"#utility.yul\":5564:5580   */\n      add\n        /* \"#utility.yul\":5557:5584   */\n      mstore\n        /* \"#utility.yul\":5487:5590   */\n      pop\n      pop\n      pop\n      jump\t// out\n        /* \"#utility.yul\":5596:5903   */\n    tag_61:\n        /* \"#utility.yul\":5664:5665   */\n      0x00\n        /* \"#utility.yul\":5674:5787   */\n    tag_101:\n        /* \"#utility.yul\":5688:5694   */\n      dup4\n        /* \"#utility.yul\":5685:5686   */\n      dup2\n        /* \"#utility.yul\":5682:5695   */\n      lt\n        /* \"#utility.yul\":5674:5787   */\n      iszero\n      tag_103\n      jumpi\n        /* \"#utility.yul\":5773:5774   */\n      dup1\n        /* \"#utility.yul\":5768:5771   */\n      dup3\n        /* \"#utility.yul\":5764:5775   */\n      add\n        /* \"#utility.yul\":5758:5776   */\n      mload\n        /* \"#utility.yul\":5754:5755   */\n      dup2\n        /* \"#utility.yul\":5749:5752   */\n      dup5\n        /* \"#utility.yul\":5745:5756   */\n      add\n        /* \"#utility.yul\":5738:5777   */\n      mstore\n        /* \"#utility.yul\":5710:5712   */\n      0x20\n        /* \"#utility.yul\":5707:5708   */\n      dup2\n        /* \"#utility.yul\":5703:5713   */\n      add\n        /* \"#utility.yul\":5698:5713   */\n      swap1\n      pop\n        /* \"#utility.yul\":5674:5787   */\n      jump(tag_101)\n    tag_103:\n        /* \"#utility.yul\":5805:5811   */\n      dup4\n        /* \"#utility.yul\":5802:5803   */\n      dup2\n        /* \"#utility.yul\":5799:5812   */\n      gt\n        /* \"#utility.yul\":5796:5798   */\n      iszero\n      tag_104\n      jumpi\n        /* \"#utility.yul\":5885:5886   */\n      0x00\n        /* \"#utility.yul\":5876:5882   */\n      dup5\n        /* \"#utility.yul\":5871:5874   */\n      dup5\n        /* \"#utility.yul\":5867:5883   */\n      add\n        /* \"#utility.yul\":5860:5887   */\n      mstore\n        /* \"#utility.yul\":5796:5798   */\n    tag_104:\n        /* \"#utility.yul\":5645:5903   */\n      pop\n      pop\n      pop\n      pop\n      jump\t// out\n        /* \"#utility.yul\":5909:6089   */\n    tag_87:\n        /* \"#utility.yul\":5957:6034   */\n      0x4e487b7100000000000000000000000000000000000000000000000000000000\n        /* \"#utility.yul\":5954:5955   */\n      0x00\n        /* \"#utility.yul\":5947:6035   */\n      mstore\n        /* \"#utility.yul\":6054:6058   */\n      0x41\n        /* \"#utility.yul\":6051:6052   */\n      0x04\n        /* \"#utility.yul\":6044:6059   */\n      mstore\n        /* \"#utility.yul\":6078:6082   */\n      0x24\n        /* \"#utility.yul\":6075:6076   */\n      0x00\n        /* \"#utility.yul\":6068:6083   */\n      revert\n\n    auxdata: 0xa2646970667358221220b29fb5e8eb8cada964c066f5e5804f18fa20f941505ed546e5cdb3f6fd38bfc964736f6c63430008000033\n}\n",
				"bytecode": {
					"linkReferences": {},
					"object": "608060405234801561001057600080fd5b506106e4806100206000396000f3fe608060405234801561001057600080fd5b50600436106100365760003560e01c806337ce06bd1461003b5780634847a4701461006c575b600080fd5b610055600480360381019061005091906103a8565b610088565b6040516100639291906104f5565b60405180910390f35b610086600480360381019061008191906103a8565b6101a0565b005b600080600073ffffffffffffffffffffffffffffffffffffffff166000846040516100b391906104de565b908152602001604051809103902060009054906101000a900473ffffffffffffffffffffffffffffffffffffffff1673ffffffffffffffffffffffffffffffffffffffff161415610139576040517f08c379a00000000000000000000000000000000000000000000000000000000081526004016101309061051e565b60405180910390fd5b60008360405161014991906104de565b908152602001604051809103902060009054906101000a900473ffffffffffffffffffffffffffffffffffffffff16915060018360405161018a91906104de565b9081526020016040518091039020549050915091565b600073ffffffffffffffffffffffffffffffffffffffff166000826040516101c891906104de565b908152602001604051809103902060009054906101000a900473ffffffffffffffffffffffffffffffffffffffff1673ffffffffffffffffffffffffffffffffffffffff161461024d576040517f08c379a00000000000000000000000000000000000000000000000000000000081526004016102449061053e565b60405180910390fd5b600033905060004290508160008460405161026891906104de565b908152602001604051809103902060006101000a81548173ffffffffffffffffffffffffffffffffffffffff021916908373ffffffffffffffffffffffffffffffffffffffff160217905550806001846040516102c591906104de565b9081526020016040518091039020819055508173ffffffffffffffffffffffffffffffffffffffff16836040516102fc91906104de565b60405180910390207fa480cfd3e8635016e70d79cba8736969cb3674ce0af6b5e1229168453689088c83604051610333919061055e565b60405180910390a3505050565b600061035361034e846105aa565b610579565b90508281526020810184848401111561036b57600080fd5b61037684828561063d565b509392505050565b600082601f83011261038f57600080fd5b813561039f848260208601610340565b91505092915050565b6000602082840312156103ba57600080fd5b600082013567ffffffffffffffff8111156103d457600080fd5b6103e08482850161037e565b91505092915050565b6103f281610601565b82525050565b6000610403826105da565b61040d81856105f6565b935061041d81856020860161064c565b80840191505092915050565b60006104366018836105e5565b91507f446f63756d656e742068617368206e6f7420666f756e642e00000000000000006000830152602082019050919050565b60006104766021836105e5565b91507f446f63756d656e74206861736820616c7265616479207265676973746572656460008301527f2e000000000000000000000000000000000000000000000000000000000000006020830152604082019050919050565b6104d881610633565b82525050565b60006104ea82846103f8565b915081905092915050565b600060408201905061050a60008301856103e9565b61051760208301846104cf565b9392505050565b6000602082019050818103600083015261053781610429565b9050919050565b6000602082019050818103600083015261055781610469565b9050919050565b600060208201905061057360008301846104cf565b92915050565b6000604051905081810181811067ffffffffffffffff821117156105a05761059f61067f565b5b8060405250919050565b600067ffffffffffffffff8211156105c5576105c461067f565b5b601f19601f8301169050602081019050919050565b600081519050919050565b600082825260208201905092915050565b600081905092915050565b600061060c82610613565b9050919050565b600073ffffffffffffffffffffffffffffffffffffffff82169050919050565b6000819050919050565b82818337600083830152505050565b60005b8381101561066a57808201518184015260208101905061064f565b83811115610679576000848401525b50505050565b7f4e487b7100000000000000000000000000000000000000000000000000000000600052604160045260246000fdfea2646970667358221220b29fb5e8eb8cada964c066f5e5804f18fa20f941505ed546e5cdb3f6fd38bfc964736f6c63430008000033",
					"opcodes": "PUSH1 0x80 PUSH1 0x40 MSTORE CALLVALUE DUP1 ISZERO PUSH2 0x10 JUMPI PUSH1 0x0 DUP1 REVERT JUMPDEST POP PUSH2 0x6E4 DUP1 PUSH2 0x20 PUSH1 0x0 CODECOPY PUSH1 0x0 RETURN INVALID PUSH1 0x80 PUSH1 0x40 MSTORE CALLVALUE DUP1 ISZERO PUSH2 0x10 JUMPI PUSH1 0x0 DUP1 REVERT JUMPDEST POP PUSH1 0x4 CALLDATASIZE LT PUSH2 0x36 JUMPI PUSH1 0x0 CALLDATALOAD PUSH1 0xE0 SHR DUP1 PUSH4 0x37CE06BD EQ PUSH2 0x3B JUMPI DUP1 PUSH4 0x4847A470 EQ PUSH2 0x6C JUMPI JUMPDEST PUSH1 0x0 DUP1 REVERT JUMPDEST PUSH2 0x55 PUSH1 0x4 DUP1 CALLDATASIZE SUB DUP2 ADD SWAP1 PUSH2 0x50 SWAP2 SWAP1 PUSH2 0x3A8 JUMP JUMPDEST PUSH2 0x88 JUMP JUMPDEST PUSH1 0x40 MLOAD PUSH2 0x63 SWAP3 SWAP2 SWAP1 PUSH2 0x4F5 JUMP JUMPDEST PUSH1 0x40 MLOAD DUP1 SWAP2 SUB SWAP1 RETURN JUMPDEST PUSH2 0x86 PUSH1 0x4 DUP1 CALLDATASIZE SUB DUP2 ADD SWAP1 PUSH2 0x81 SWAP2 SWAP1 PUSH2 0x3A8 JUMP JUMPDEST PUSH2 0x1A0 JUMP JUMPDEST STOP JUMPDEST PUSH1 0x0 DUP1 PUSH1 0x0 PUSH20 0xFFFFFFFFFFFFFFFFFFFFFFFFFFFFFFFFFFFFFFFF AND PUSH1 0x0 DUP5 PUSH1 0x40 MLOAD PUSH2 0xB3 SWAP2 SWAP1 PUSH2 0x4DE JUMP JUMPDEST SWAP1 DUP2 MSTORE PUSH1 0x20 ADD PUSH1 0x40 MLOAD DUP1 SWAP2 SUB SWAP1 KECCAK256 PUSH1 0x0 SWAP1 SLOAD SWAP1 PUSH2 0x100 EXP SWAP1 DIV PUSH20 0xFFFFFFFFFFFFFFFFFFFFFFFFFFFFFFFFFFFFFFFF AND PUSH20 0xFFFFFFFFFFFFFFFFFFFFFFFFFFFFFFFFFFFFFFFF AND EQ ISZERO PUSH2 0x139 JUMPI PUSH1 0x40 MLOAD PUSH32 0x8C379A000000000000000000000000000000000000000000000000000000000 DUP2 MSTORE PUSH1 0x4 ADD PUSH2 0x130 SWAP1 PUSH2 0x51E JUMP JUMPDEST PUSH1 0x40 MLOAD DUP1 SWAP2 SUB SWAP1 REVERT JUMPDEST PUSH1 0x0 DUP4 PUSH1 0x40 MLOAD PUSH2 0x149 SWAP2 SWAP1 PUSH2 0x4DE JUMP JUMPDEST SWAP1 DUP2 MSTORE PUSH1 0x20 ADD PUSH1 0x40 MLOAD DUP1 SWAP2 SUB SWAP1 KECCAK256 PUSH1 0x0 SWAP1 SLOAD SWAP1 PUSH2 0x100 EXP SWAP1 DIV PUSH20 0xFFFFFFFFFFFFFFFFFFFFFFFFFFFFFFFFFFFFFFFF AND SWAP2 POP PUSH1 0x1 DUP4 PUSH1 0x40 MLOAD PUSH2 0x18A SWAP2 SWAP1 PUSH2 0x4DE JUMP JUMPDEST SWAP1 DUP2 MSTORE PUSH1 0x20 ADD PUSH1 0x40 MLOAD DUP1 SWAP2 SUB SWAP1 KECCAK256 SLOAD SWAP1 POP SWAP2 POP SWAP2 JUMP JUMPDEST PUSH1 0x0 PUSH20 0xFFFFFFFFFFFFFFFFFFFFFFFFFFFFFFFFFFFFFFFF AND PUSH1 0x0 DUP3 PUSH1 0x40 MLOAD PUSH2 0x1C8 SWAP2 SWAP1 PUSH2 0x4DE JUMP JUMPDEST SWAP1 DUP2 MSTORE PUSH1 0x20 ADD PUSH1 0x40 MLOAD DUP1 SWAP2 SUB SWAP1 KECCAK256 PUSH1 0x0 SWAP1 SLOAD SWAP1 PUSH2 0x100 EXP SWAP1 DIV PUSH20 0xFFFFFFFFFFFFFFFFFFFFFFFFFFFFFFFFFFFFFFFF AND PUSH20 0xFFFFFFFFFFFFFFFFFFFFFFFFFFFFFFFFFFFFFFFF AND EQ PUSH2 0x24D JUMPI PUSH1 0x40 MLOAD PUSH32 0x8C379A000000000000000000000000000000000000000000000000000000000 DUP2 MSTORE PUSH1 0x4 ADD PUSH2 0x244 SWAP1 PUSH2 0x53E JUMP JUMPDEST PUSH1 0x40 MLOAD DUP1 SWAP2 SUB SWAP1 REVERT JUMPDEST PUSH1 0x0 CALLER SWAP1 POP PUSH1 0x0 TIMESTAMP SWAP1 POP DUP2 PUSH1 0x0 DUP5 PUSH1 0x40 MLOAD PUSH2 0x268 SWAP2 SWAP1 PUSH2 0x4DE JUMP JUMPDEST SWAP1 DUP2 MSTORE PUSH1 0x20 ADD PUSH1 0x40 MLOAD DUP1 SWAP2 SUB SWAP1 KECCAK256 PUSH1 0x0 PUSH2 0x100 EXP DUP2 SLOAD DUP2 PUSH20 0xFFFFFFFFFFFFFFFFFFFFFFFFFFFFFFFFFFFFFFFF MUL NOT AND SWAP1 DUP4 PUSH20 0xFFFFFFFFFFFFFFFFFFFFFFFFFFFFFFFFFFFFFFFF AND MUL OR SWAP1 SSTORE POP DUP1 PUSH1 0x1 DUP5 PUSH1 0x40 MLOAD PUSH2 0x2C5 SWAP2 SWAP1 PUSH2 0x4DE JUMP JUMPDEST SWAP1 DUP2 MSTORE PUSH1 0x20 ADD PUSH1 0x40 MLOAD DUP1 SWAP2 SUB SWAP1 KECCAK256 DUP2 SWAP1 SSTORE POP DUP2 PUSH20 0xFFFFFFFFFFFFFFFFFFFFFFFFFFFFFFFFFFFFFFFF AND DUP4 PUSH1 0x40 MLOAD PUSH2 0x2FC SWAP2 SWAP1 PUSH2 0x4DE JUMP JUMPDEST PUSH1 0x40 MLOAD DUP1 SWAP2 SUB SWAP1 KECCAK256 PUSH32 0xA480CFD3E8635016E70D79CBA8736969CB3674CE0AF6B5E1229168453689088C DUP4 PUSH1 0x40 MLOAD PUSH2 0x333 SWAP2 SWAP1 PUSH2 0x55E JUMP JUMPDEST PUSH1 0x40 MLOAD DUP1 SWAP2 SUB SWAP1 LOG3 POP POP POP JUMP JUMPDEST PUSH1 0x0 PUSH2 0x353 PUSH2 0x34E DUP5 PUSH2 0x5AA JUMP JUMPDEST PUSH2 0x579 JUMP JUMPDEST SWAP1 POP DUP3 DUP2 MSTORE PUSH1 0x20 DUP2 ADD DUP5 DUP5 DUP5 ADD GT ISZERO PUSH2 0x36B JUMPI PUSH1 0x0 DUP1 REVERT JUMPDEST PUSH2 0x376 DUP5 DUP3 DUP6 PUSH2 0x63D JUMP JUMPDEST POP SWAP4 SWAP3 POP POP POP JUMP JUMPDEST PUSH1 0x0 DUP3 PUSH1 0x1F DUP4 ADD SLT PUSH2 0x38F JUMPI PUSH1 0x0 DUP1 REVERT JUMPDEST DUP2 CALLDATALOAD PUSH2 0x39F DUP5 DUP3 PUSH1 0x20 DUP7 ADD PUSH2 0x340 JUMP JUMPDEST SWAP2 POP POP SWAP3 SWAP2 POP POP JUMP JUMPDEST PUSH1 0x0 PUSH1 0x20 DUP3 DUP5 SUB SLT ISZERO PUSH2 0x3BA JUMPI PUSH1 0x0 DUP1 REVERT JUMPDEST PUSH1 0x0 DUP3 ADD CALLDATALOAD PUSH8 0xFFFFFFFFFFFFFFFF DUP2 GT ISZERO PUSH2 0x3D4 JUMPI PUSH1 0x0 DUP1 REVERT JUMPDEST PUSH2 0x3E0 DUP5 DUP3 DUP6 ADD PUSH2 0x37E JUMP JUMPDEST SWAP2 POP POP SWAP3 SWAP2 POP POP JUMP JUMPDEST PUSH2 0x3F2 DUP2 PUSH2 0x601 JUMP JUMPDEST DUP3 MSTORE POP POP JUMP JUMPDEST PUSH1 0x0 PUSH2 0x403 DUP3 PUSH2 0x5DA JUMP JUMPDEST PUSH2 0x40D DUP2 DUP6 PUSH2 0x5F6 JUMP JUMPDEST SWAP4 POP PUSH2 0x41D DUP2 DUP6 PUSH1 0x20 DUP7 ADD PUSH2 0x64C JUMP JUMPDEST DUP1 DUP5 ADD SWAP2 POP POP SWAP3 SWAP2 POP POP JUMP JUMPDEST PUSH1 0x0 PUSH2 0x436 PUSH1 0x18 DUP4 PUSH2 0x5E5 JUMP JUMPDEST SWAP2 POP PUSH32 0x446F63756D656E742068617368206E6F7420666F756E642E0000000000000000 PUSH1 0x0 DUP4 ADD MSTORE PUSH1 0x20 DUP3 ADD SWAP1 POP SWAP2 SWAP1 POP JUMP JUMPDEST PUSH1 0x0 PUSH2 0x476 PUSH1 0x21 DUP4 PUSH2 0x5E5 JUMP JUMPDEST SWAP2 POP PUSH32 0x446F63756D656E74206861736820616C72656164792072656769737465726564 PUSH1 0x0 DUP4 ADD MSTORE PUSH32 0x2E00000000000000000000000000000000000000000000000000000000000000 PUSH1 0x20 DUP4 ADD MSTORE PUSH1 0x40 DUP3 ADD SWAP1 POP SWAP2 SWAP1 POP JUMP JUMPDEST PUSH2 0x4D8 DUP2 PUSH2 0x633 JUMP JUMPDEST DUP3 MSTORE POP POP JUMP JUMPDEST PUSH1 0x0 PUSH2 0x4EA DUP3 DUP5 PUSH2 0x3F8 JUMP JUMPDEST SWAP2 POP DUP2 SWAP1 POP SWAP3 SWAP2 POP POP JUMP JUMPDEST PUSH1 0x0 PUSH1 0x40 DUP3 ADD SWAP1 POP PUSH2 0x50A PUSH1 0x0 DUP4 ADD DUP6 PUSH2 0x3E9 JUMP JUMPDEST PUSH2 0x517 PUSH1 0x20 DUP4 ADD DUP5 PUSH2 0x4CF JUMP JUMPDEST SWAP4 SWAP3 POP POP POP JUMP JUMPDEST PUSH1 0x0 PUSH1 0x20 DUP3 ADD SWAP1 POP DUP2 DUP2 SUB PUSH1 0x0 DUP4 ADD MSTORE PUSH2 0x537 DUP2 PUSH2 0x429 JUMP JUMPDEST SWAP1 POP SWAP2 SWAP1 POP JUMP JUMPDEST PUSH1 0x0 PUSH1 0x20 DUP3 ADD SWAP1 POP DUP2 DUP2 SUB PUSH1 0x0 DUP4 ADD MSTORE PUSH2 0x557 DUP2 PUSH2 0x469 JUMP JUMPDEST SWAP1 POP SWAP2 SWAP1 POP JUMP JUMPDEST PUSH1 0x0 PUSH1 0x20 DUP3 ADD SWAP1 POP PUSH2 0x573 PUSH1 0x0 DUP4 ADD DUP5 PUSH2 0x4CF JUMP JUMPDEST SWAP3 SWAP2 POP POP JUMP JUMPDEST PUSH1 0x0 PUSH1 0x40 MLOAD SWAP1 POP DUP2 DUP2 ADD DUP2 DUP2 LT PUSH8 0xFFFFFFFFFFFFFFFF DUP3 GT OR ISZERO PUSH2 0x5A0 JUMPI PUSH2 0x59F PUSH2 0x67F JUMP JUMPDEST JUMPDEST DUP1 PUSH1 0x40 MSTORE POP SWAP2 SWAP1 POP JUMP JUMPDEST PUSH1 0x0 PUSH8 0xFFFFFFFFFFFFFFFF DUP3 GT ISZERO PUSH2 0x5C5 JUMPI PUSH2 0x5C4 PUSH2 0x67F JUMP JUMPDEST JUMPDEST PUSH1 0x1F NOT PUSH1 0x1F DUP4 ADD AND SWAP1 POP PUSH1 0x20 DUP2 ADD SWAP1 POP SWAP2 SWAP1 POP JUMP JUMPDEST PUSH1 0x0 DUP2 MLOAD SWAP1 POP SWAP2 SWAP1 POP JUMP JUMPDEST PUSH1 0x0 DUP3 DUP3 MSTORE PUSH1 0x20 DUP3 ADD SWAP1 POP SWAP3 SWAP2 POP POP JUMP JUMPDEST PUSH1 0x0 DUP2 SWAP1 POP SWAP3 SWAP2 POP POP JUMP JUMPDEST PUSH1 0x0 PUSH2 0x60C DUP3 PUSH2 0x613 JUMP JUMPDEST SWAP1 POP SWAP2 SWAP1 POP JUMP JUMPDEST PUSH1 0x0 PUSH20 0xFFFFFFFFFFFFFFFFFFFFFFFFFFFFFFFFFFFFFFFF DUP3 AND SWAP1 POP SWAP2 SWAP1 POP JUMP JUMPDEST PUSH1 0x0 DUP2 SWAP1 POP SWAP2 SWAP1 POP JUMP JUMPDEST DUP3 DUP2 DUP4 CALLDATACOPY PUSH1 0x0 DUP4 DUP4 ADD MSTORE POP POP POP JUMP JUMPDEST PUSH1 0x0 JUMPDEST DUP4 DUP2 LT ISZERO PUSH2 0x66A JUMPI DUP1 DUP3 ADD MLOAD DUP2 DUP5 ADD MSTORE PUSH1 0x20 DUP2 ADD SWAP1 POP PUSH2 0x64F JUMP JUMPDEST DUP4 DUP2 GT ISZERO PUSH2 0x679 JUMPI PUSH1 0x0 DUP5 DUP5 ADD MSTORE JUMPDEST POP POP POP POP JUMP JUMPDEST PUSH32 0x4E487B7100000000000000000000000000000000000000000000000000000000 PUSH1 0x0 MSTORE PUSH1 0x41 PUSH1 0x4 MSTORE PUSH1 0x24 PUSH1 0x0 REVERT INVALID LOG2 PUSH5 0x6970667358 0x22 SLT KECCAK256 0xB2 SWAP16 0xB5 0xE8 0xEB DUP13 0xAD 0xA9 PUSH5 0xC066F5E580 0x4F XOR STATICCALL KECCAK256 0xF9 COINBASE POP 0x5E 0xD5 CHAINID 0xE5 0xCD 0xB3 0xF6 REVERT CODESIZE 0xBF 0xC9 PUSH5 0x736F6C6343 STOP ADDMOD STOP STOP CALLER "
				},
				"gasEstimates": {
					"creation": {
						"codeDepositCost": "352800",
						"executionCost": "393",
						"totalCost": "353193"
					},
					"external": {
						"getDocumentInfo(string)": "infinite",
						"registerDocument(string)": "infinite"
					}
				},
				"methodIdentifiers": {
					"getDocumentInfo(string)": "37ce06bd",
					"registerDocument(string)": "4847a470"
				}
			},
			"storageLayout": {
				"storage": [
					{
						"astId": 5,
						"contract": "contracts/Copyright.sol:Copyright",
						"label": "documentHashes",
						"offset": 0,
						"slot": "0",
						"type": "t_mapping(t_string_memory_ptr,t_address)"
					},
					{
						"astId": 9,
						"contract": "contracts/Copyright.sol:Copyright",
						"label": "registrationTimestamps",
						"offset": 0,
						"slot": "1",
						"type": "t_mapping(t_string_memory_ptr,t_uint256)"
					}
				],
				"types": {
					"t_address": {
						"encoding": "inplace",
						"label": "address",
						"numberOfBytes": "20"
					},
					"t_mapping(t_string_memory_ptr,t_address)": {
						"encoding": "mapping",
						"key": "t_string_memory_ptr",
						"label": "mapping(string => address)",
						"numberOfBytes": "32",
						"value": "t_address"
					},
					"t_mapping(t_string_memory_ptr,t_uint256)": {
						"encoding": "mapping",
						"key": "t_string_memory_ptr",
						"label": "mapping(string => uint256)",
						"numberOfBytes": "32",
						"value": "t_uint256"
					},
					"t_string_memory_ptr": {
						"encoding": "bytes",
						"label": "string",
						"numberOfBytes": "32"
					},
					"t_uint256": {
						"encoding": "inplace",
						"label": "uint256",
						"numberOfBytes": "32"
					}
				}
			},
			"userdoc": {
				"kind": "user",
				"methods": {},
				"version": 1
			}
		}
	}
}