{
  "_format": "hh-sol-artifact-1",
  "contractName": "RewardEscrow",
  "sourceName": "contracts/RewardEscrow.sol",
  "abi": [
    {
      "inputs": [
        {
          "internalType": "address",
          "name": "tokenAddress",
          "type": "address"
        }
      ],
      "stateMutability": "nonpayable",
      "type": "constructor"
    },
    {
      "inputs": [
        {
          "internalType": "address",
          "name": "owner",
          "type": "address"
        }
      ],
      "name": "OwnableInvalidOwner",
      "type": "error"
    },
    {
      "inputs": [
        {
          "internalType": "address",
          "name": "account",
          "type": "address"
        }
      ],
      "name": "OwnableUnauthorizedAccount",
      "type": "error"
    },
    {
      "anonymous": false,
      "inputs": [
        {
          "indexed": true,
          "internalType": "address",
          "name": "sender",
          "type": "address"
        },
        {
          "indexed": false,
          "internalType": "uint256",
          "name": "amount",
          "type": "uint256"
        },
        {
          "indexed": false,
          "internalType": "uint256",
          "name": "balanceAfter",
          "type": "uint256"
        }
      ],
      "name": "DepositRecorded",
      "type": "event"
    },
    {
      "anonymous": false,
      "inputs": [
        {
          "indexed": true,
          "internalType": "address",
          "name": "previousOwner",
          "type": "address"
        },
        {
          "indexed": true,
          "internalType": "address",
          "name": "newOwner",
          "type": "address"
        }
      ],
      "name": "OwnershipTransferred",
      "type": "event"
    },
    {
      "anonymous": false,
      "inputs": [
        {
          "indexed": true,
          "internalType": "bytes32",
          "name": "requestId",
          "type": "bytes32"
        },
        {
          "indexed": true,
          "internalType": "address",
          "name": "operator",
          "type": "address"
        },
        {
          "indexed": true,
          "internalType": "address",
          "name": "recipient",
          "type": "address"
        },
        {
          "indexed": false,
          "internalType": "uint256",
          "name": "amount",
          "type": "uint256"
        }
      ],
      "name": "WithdrawalReleased",
      "type": "event"
    },
    {
      "inputs": [
        {
          "internalType": "uint256",
          "name": "amount",
          "type": "uint256"
        }
      ],
      "name": "deposit",
      "outputs": [],
      "stateMutability": "nonpayable",
      "type": "function"
    },
    {
      "inputs": [],
      "name": "escrowBalance",
      "outputs": [
        {
          "internalType": "uint256",
          "name": "",
          "type": "uint256"
        }
      ],
      "stateMutability": "view",
      "type": "function"
    },
    {
      "inputs": [],
      "name": "owner",
      "outputs": [
        {
          "internalType": "address",
          "name": "",
          "type": "address"
        }
      ],
      "stateMutability": "view",
      "type": "function"
    },
    {
      "inputs": [
        {
          "internalType": "bytes32",
          "name": "",
          "type": "bytes32"
        }
      ],
      "name": "processedRequests",
      "outputs": [
        {
          "internalType": "bool",
          "name": "",
          "type": "bool"
        }
      ],
      "stateMutability": "view",
      "type": "function"
    },
    {
      "inputs": [
        {
          "internalType": "address",
          "name": "recipient",
          "type": "address"
        },
        {
          "internalType": "uint256",
          "name": "amount",
          "type": "uint256"
        },
        {
          "internalType": "bytes32",
          "name": "requestId",
          "type": "bytes32"
        }
      ],
      "name": "release",
      "outputs": [
        {
          "internalType": "bytes32",
          "name": "",
          "type": "bytes32"
        }
      ],
      "stateMutability": "nonpayable",
      "type": "function"
    },
    {
      "inputs": [],
      "name": "renounceOwnership",
      "outputs": [],
      "stateMutability": "nonpayable",
      "type": "function"
    },
    {
      "inputs": [],
      "name": "rewardToken",
      "outputs": [
        {
          "internalType": "contract IERC20",
          "name": "",
          "type": "address"
        }
      ],
      "stateMutability": "view",
      "type": "function"
    },
    {
      "inputs": [],
      "name": "totalLocked",
      "outputs": [
        {
          "internalType": "uint256",
          "name": "",
          "type": "uint256"
        }
      ],
      "stateMutability": "view",
      "type": "function"
    },
    {
      "inputs": [],
      "name": "totalReleased",
      "outputs": [
        {
          "internalType": "uint256",
          "name": "",
          "type": "uint256"
        }
      ],
      "stateMutability": "view",
      "type": "function"
    },
    {
      "inputs": [
        {
          "internalType": "address",
          "name": "newOwner",
          "type": "address"
        }
      ],
      "name": "transferOwnership",
      "outputs": [],
      "stateMutability": "nonpayable",
      "type": "function"
    }
  ],
  "bytecode": "0x60a06040523480156200001157600080fd5b506040516200144c3803806200144c83398181016040528101906200003791906200029a565b33600073ffffffffffffffffffffffffffffffffffffffff168173ffffffffffffffffffffffffffffffffffffffff1603620000ad5760006040517f1e4fbdf7000000000000000000000000000000000000000000000000000000008152600401620000a49190620002dd565b60405180910390fd5b620000be816200016c60201b60201c565b50600073ffffffffffffffffffffffffffffffffffffffff168173ffffffffffffffffffffffffffffffffffffffff160362000131576040517f08c379a000000000000000000000000000000000000000000000000000000000815260040162000128906200035b565b60405180910390fd5b8073ffffffffffffffffffffffffffffffffffffffff1660808173ffffffffffffffffffffffffffffffffffffffff1681525050506200037d565b60008060009054906101000a900473ffffffffffffffffffffffffffffffffffffffff169050816000806101000a81548173ffffffffffffffffffffffffffffffffffffffff021916908373ffffffffffffffffffffffffffffffffffffffff1602179055508173ffffffffffffffffffffffffffffffffffffffff168173ffffffffffffffffffffffffffffffffffffffff167f8be0079c531659141344cd1fd0a4f28419497f9722a3daafe3b4186f6b6457e060405160405180910390a35050565b600080fd5b600073ffffffffffffffffffffffffffffffffffffffff82169050919050565b6000620002628262000235565b9050919050565b620002748162000255565b81146200028057600080fd5b50565b600081519050620002948162000269565b92915050565b600060208284031215620002b357620002b262000230565b5b6000620002c38482850162000283565b91505092915050565b620002d78162000255565b82525050565b6000602082019050620002f46000830184620002cc565b92915050565b600082825260208201905092915050565b7f546f6b656e206164647265737320726571756972656400000000000000000000600082015250565b600062000343601683620002fa565b915062000350826200030b565b602082019050919050565b60006020820190508181036000830152620003768162000334565b9050919050565b608051611097620003b5600039600081816103330152818161052c0152818161066001528181610736015261086101526110976000f3fe608060405234801561001057600080fd5b506004361061009e5760003560e01c8063ce0fa5a911610066578063ce0fa5a914610135578063e11e1b0c14610165578063e33b7de314610183578063f2fde38b146101a1578063f7c618c1146101bd5761009e565b80632d3ad0cb146100a357806356891412146100d3578063715018a6146100f15780638da5cb5b146100fb578063b6b55f2514610119575b600080fd5b6100bd60048036038101906100b89190610aa5565b6101db565b6040516100ca9190610b07565b60405180910390f35b6100db6104a2565b6040516100e89190610b31565b60405180910390f35b6100f96104a8565b005b6101036104bc565b6040516101109190610b5b565b60405180910390f35b610133600480360381019061012e9190610b76565b6104e5565b005b61014f600480360381019061014a9190610ba3565b610712565b60405161015c9190610beb565b60405180910390f35b61016d610732565b60405161017a9190610b31565b60405180910390f35b61018b6107d3565b6040516101989190610b31565b60405180910390f35b6101bb60048036038101906101b69190610c06565b6107d9565b005b6101c561085f565b6040516101d29190610c92565b60405180910390f35b60006101e5610883565b600073ffffffffffffffffffffffffffffffffffffffff168473ffffffffffffffffffffffffffffffffffffffff1603610254576040517f08c379a000000000000000000000000000000000000000000000000000000000815260040161024b90610d0a565b60405180910390fd5b60008311610297576040517f08c379a000000000000000000000000000000000000000000000000000000000815260040161028e90610d76565b60405180910390fd5b6000801b821461032f576003600083815260200190815260200160002060009054906101000a900460ff1615610302576040517f08c379a00000000000000000000000000000000000000000000000000000000081526004016102f990610de2565b60405180910390fd5b60016003600084815260200190815260200160002060006101000a81548160ff0219169083151502179055505b60007f000000000000000000000000000000000000000000000000000000000000000073ffffffffffffffffffffffffffffffffffffffff1663a9059cbb86866040518363ffffffff1660e01b815260040161038c929190610e02565b6020604051808303816000875af11580156103ab573d6000803e3d6000fd5b505050506040513d601f19601f820116820180604052508101906103cf9190610e57565b905080610411576040517f08c379a000000000000000000000000000000000000000000000000000000000815260040161040890610ed0565b60405180910390fd5b83600260008282546104239190610f1f565b925050819055508473ffffffffffffffffffffffffffffffffffffffff1661044961090a565b73ffffffffffffffffffffffffffffffffffffffff16847f1ef95578d3ddf2954ea4480afca68fa93858df2c135f5a90af347e3453e48e228760405161048f9190610b31565b60405180910390a4829150509392505050565b60015481565b6104b0610883565b6104ba6000610912565b565b60008060009054906101000a900473ffffffffffffffffffffffffffffffffffffffff16905090565b60008111610528576040517f08c379a000000000000000000000000000000000000000000000000000000000815260040161051f90610d76565b60405180910390fd5b60007f000000000000000000000000000000000000000000000000000000000000000073ffffffffffffffffffffffffffffffffffffffff166323b872dd3330856040518463ffffffff1660e01b815260040161058793929190610f53565b6020604051808303816000875af11580156105a6573d6000803e3d6000fd5b505050506040513d601f19601f820116820180604052508101906105ca9190610e57565b90508061060c576040517f08c379a000000000000000000000000000000000000000000000000000000000815260040161060390610fd6565b60405180910390fd5b816001600082825461061e9190610f1f565b925050819055503373ffffffffffffffffffffffffffffffffffffffff167f63746a529035c061c0f4d3d89777a673fe489a291caf751b3a0c40b7c89448a4837f000000000000000000000000000000000000000000000000000000000000000073ffffffffffffffffffffffffffffffffffffffff166370a08231306040518263ffffffff1660e01b81526004016106b79190610b5b565b602060405180830381865afa1580156106d4573d6000803e3d6000fd5b505050506040513d601f19601f820116820180604052508101906106f8919061100b565b604051610706929190611038565b60405180910390a25050565b60036020528060005260406000206000915054906101000a900460ff1681565b60007f000000000000000000000000000000000000000000000000000000000000000073ffffffffffffffffffffffffffffffffffffffff166370a08231306040518263ffffffff1660e01b815260040161078d9190610b5b565b602060405180830381865afa1580156107aa573d6000803e3d6000fd5b505050506040513d601f19601f820116820180604052508101906107ce919061100b565b905090565b60025481565b6107e1610883565b600073ffffffffffffffffffffffffffffffffffffffff168173ffffffffffffffffffffffffffffffffffffffff16036108535760006040517f1e4fbdf700000000000000000000000000000000000000000000000000000000815260040161084a9190610b5b565b60405180910390fd5b61085c81610912565b50565b7f000000000000000000000000000000000000000000000000000000000000000081565b61088b61090a565b73ffffffffffffffffffffffffffffffffffffffff166108a96104bc565b73ffffffffffffffffffffffffffffffffffffffff1614610908576108cc61090a565b6040517f118cdaa70000000000000000000000000000000000000000000000000000000081526004016108ff9190610b5b565b60405180910390fd5b565b600033905090565b60008060009054906101000a900473ffffffffffffffffffffffffffffffffffffffff169050816000806101000a81548173ffffffffffffffffffffffffffffffffffffffff021916908373ffffffffffffffffffffffffffffffffffffffff1602179055508173ffffffffffffffffffffffffffffffffffffffff168173ffffffffffffffffffffffffffffffffffffffff167f8be0079c531659141344cd1fd0a4f28419497f9722a3daafe3b4186f6b6457e060405160405180910390a35050565b600080fd5b600073ffffffffffffffffffffffffffffffffffffffff82169050919050565b6000610a06826109db565b9050919050565b610a16816109fb565b8114610a2157600080fd5b50565b600081359050610a3381610a0d565b92915050565b6000819050919050565b610a4c81610a39565b8114610a5757600080fd5b50565b600081359050610a6981610a43565b92915050565b6000819050919050565b610a8281610a6f565b8114610a8d57600080fd5b50565b600081359050610a9f81610a79565b92915050565b600080600060608486031215610abe57610abd6109d6565b5b6000610acc86828701610a24565b9350506020610add86828701610a5a565b9250506040610aee86828701610a90565b9150509250925092565b610b0181610a6f565b82525050565b6000602082019050610b1c6000830184610af8565b92915050565b610b2b81610a39565b82525050565b6000602082019050610b466000830184610b22565b92915050565b610b55816109fb565b82525050565b6000602082019050610b706000830184610b4c565b92915050565b600060208284031215610b8c57610b8b6109d6565b5b6000610b9a84828501610a5a565b91505092915050565b600060208284031215610bb957610bb86109d6565b5b6000610bc784828501610a90565b91505092915050565b60008115159050919050565b610be581610bd0565b82525050565b6000602082019050610c006000830184610bdc565b92915050565b600060208284031215610c1c57610c1b6109d6565b5b6000610c2a84828501610a24565b91505092915050565b6000819050919050565b6000610c58610c53610c4e846109db565b610c33565b6109db565b9050919050565b6000610c6a82610c3d565b9050919050565b6000610c7c82610c5f565b9050919050565b610c8c81610c71565b82525050565b6000602082019050610ca76000830184610c83565b92915050565b600082825260208201905092915050565b7f496e76616c696420726563697069656e74000000000000000000000000000000600082015250565b6000610cf4601183610cad565b9150610cff82610cbe565b602082019050919050565b60006020820190508181036000830152610d2381610ce7565b9050919050565b7f416d6f756e74206d7573742062652067726561746572207468616e207a65726f600082015250565b6000610d60602083610cad565b9150610d6b82610d2a565b602082019050919050565b60006020820190508181036000830152610d8f81610d53565b9050919050565b7f5265717565737420616c72656164792070726f63657373656400000000000000600082015250565b6000610dcc601983610cad565b9150610dd782610d96565b602082019050919050565b60006020820190508181036000830152610dfb81610dbf565b9050919050565b6000604082019050610e176000830185610b4c565b610e246020830184610b22565b9392505050565b610e3481610bd0565b8114610e3f57600080fd5b50565b600081519050610e5181610e2b565b92915050565b600060208284031215610e6d57610e6c6109d6565b5b6000610e7b84828501610e42565b91505092915050565b7f546f6b656e207472616e73666572206661696c65640000000000000000000000600082015250565b6000610eba601583610cad565b9150610ec582610e84565b602082019050919050565b60006020820190508181036000830152610ee981610ead565b9050919050565b7f4e487b7100000000000000000000000000000000000000000000000000000000600052601160045260246000fd5b6000610f2a82610a39565b9150610f3583610a39565b9250828201905080821115610f4d57610f4c610ef0565b5b92915050565b6000606082019050610f686000830186610b4c565b610f756020830185610b4c565b610f826040830184610b22565b949350505050565b7f5472616e73666572206661696c65640000000000000000000000000000000000600082015250565b6000610fc0600f83610cad565b9150610fcb82610f8a565b602082019050919050565b60006020820190508181036000830152610fef81610fb3565b9050919050565b60008151905061100581610a43565b92915050565b600060208284031215611021576110206109d6565b5b600061102f84828501610ff6565b91505092915050565b600060408201905061104d6000830185610b22565b61105a6020830184610b22565b939250505056fea2646970667358221220e05c0d9718aad7521f6fcdf0ff00865dfcf18552d7a0255c8b058af5d6b55a9e64736f6c63430008180033",
  "linkReferences": {},
  "deployedLinkReferences": {}
}